:020000040800F2
:10000000F877001001030008DB260308C92603085F
:10001000DD260308E9260308F52603080000000092
:10002000000000000000000000000000012703089D
:1000300003270308000000008D350308C5350308B9
:1000400089010008832703088D27030895270308E3
:10005000299A0308890100081127030817270308B4
:100060001D270308232703082927030849540308E9
:100070005954030869540308795403088954030840
:1000800099540308A954030889010008890100084C
:100090008901000889010008890100082F27030849
:1000A000A9270308AF270308C1270308C7270308A8
:1000B000CD270308D3270308D927030833280308CB
:1000C000392803083F280308452803088901000848
:1000D000890100080F280308152803081B280308B6
:1000E00053270308872703088901000889010008AE
:1000F00005280308890100080B2803088901000866
:100100008901000889010008E12703088901000826
:100110002128030827280308F9270308FF270308D5
:10012000B9540308C9540308D9540308E95403080F
:10013000F9540308890100088901000889010008B1
:1001400089010008890100088901000805270308C2
:1001500009550308195503082D28030889010008CB
:100160008901000889010008890100088901000847
:10017000890100088901000800000000000000005B
:08018000890100088901000853
:10018800FEE700000E4AD2F8883043F47003C2F844
:1001980088300C4B1A68002142F001021A609960FD
:1001A8001A6822F0A85222F410221A604FF48052E2
:1001B800DA601A6822F480221A609961704700BFD9
:1001C80000ED00E0001002402DE9F0430025BBB02F
:1001D800DFF8209103952422294608A827F0E8FC97
:1001E800D9F8903023F01803C9F8903014230793F6
:1001F80060230F930F230124022602934FF0070870
:100208002823042707A8CDE90D45CDE91438CDE901
:100218001676CDE90455129409941196139406950F
:100228002CF0ECF810B12D4831F008FF149B13990D
:10023800DB00B3FBF1F33021B3FBF1F201FB123227
:10024800003A1599B3FBF1F118BF012202A833F067
:10025800A1FA054608B12248E6E72CF007FF214B32
:1002680018934FF0805336934FF080633393359350
:100278004FF4807339931823CDE91B3818A81A4B0B
:100288002C95CDE91944CDE91D6631951F932CF0C5
:1002980003FD044608B11548C6E7D9F8583043F0BD
:1002A8008053C9F85830D9F8583003F08053019377
:1002B8004FF40070019B2BF09DFF2CF0B9FB4FF41D
:1002C8007A73B0FBF3F029F04FFC384629F062FC52
:1002D800074B83F823403BB0BDE8F083C0AD03086B
:1002E800D2AD03084068060000001101E6AD03081E
:1002F80000ED00E0001002400446DFF830D00C4961
:100308000C4A0D4B03E051F8040B42F8040B9A42D7
:10031800F9D3002009490A4A01E041F8040B914247
:10032800FBD3FFF72FFF204631F0DCBFF877001032
:1003380010FF0408000000203800002038000020CA
:100348000024002040F8044B40F8045B40F8046B9C
:1003580040F8047B40F8048B40F8049B40F804AB59
:1003680040F804BB40F804CB40F804DB684670470B
:10037800024B5A690260586100207047DC1B00205C
:10038800024B5A6912685A61704700BFDC1B002093
:10039800C460056146618761C0F81C80C0F8209080
:1003A800C0F824A0C0F828B0C0F82CD080ED0C8B81
:1003B80080ED0E9B80ED10ABC0F808E0FFF7D8BFCA
:1003C800104908B54B690BB931F078FF1A685860C5
:1003D8004A611846C468056946698769D0F81C806F
:1003E800D0F82090D0F824A0D0F828B0D0F82CD09D
:1003F80090ED0C8B90ED0E9B90ED10ABD0F808E0D3
:1004080001207047DC1B002010B50021044600F0D5
:10041800AFFA18B914B120460DF0F6FA10BD002154
:1004280000F0A6BA10B50121044600F0A1FA18B9E7
:1004380014B120460DF0E8FA10BDFFF7E5BF10B57E
:1004480001220C4600F0A6FB18B914B120460DF0A5
:10045800DBFA10BD00F09EBB00F05EBB2DE9F04357
:100468002A4C00250326D4F898720021013143183C
:100478009A0803F00303BA5C5B0042FA03F303F043
:100488000303022BF2D0D4F8A43209014FEA910CED
:1004980003EB001089B300EB8C0C03681A0729D111
:1004A800D4F8A4125A1AC2F3011799424FEA921EBD
:1004B8004FEA47074FEA12121CD8D4F8A8129942FB
:1004C80018D9D4F8989219F80E8048FA07F101F073
:1004D800030106FA07F3012943EA08030AD104EBEA
:1004E80045073F2D09F80E309ABF0135A7F8B42209
:1004F800C4F8B01204306045CFD12DB1013D04EBF2
:100508004503B3F8B402AEE7BDE8F083DC1B002076
:10051800F0B4194ED6E9A843C01AC109C0F30215B0
:10052800635C0122AA4023EA02036354D6F8AC2292
:1005380083090409B2EB901FD6F8980288BFC6F861
:10054800AC32C15CA50804F0030303275B0007FA7B
:1005580003F321EA030343550134D6F89802A508AA
:1005680004F00303415D5A0041FA02F202F003026B
:10057800022AEBD0F0BC7047DC1B0020F8B521F054
:100588000F052B1A144A154C013BDB00A2FB032371
:100598005B0A9A00591C073201EBD2020144A5EB11
:1005A8008317C4F8A0120021C4F89C32C4F8A472BE
:1005B800C4F89802C4F8A85227F0FAFA00230121D7
:1005C8004FF0FF32A4F83413C4F83C23C4F8AC321B
:1005D8002381C4F83833F8BDF32C23FADC1B002040
:1005E800024A138901331381704700BFDC1B0020C6
:1005F800024A1389013B1381704700BFDC1B0020AE
:10060800024B1889003818BF01207047DC1B0020F6
:10061800F8B51C4C2389002201332381C4F8382300
:10062800C4F8B02204F1080504F5F676032755F856
:10063800042F13071AD1D4F8A412501AC0F30113C7
:100648008A424FEA901C4FEA43034FEA10100DD339
:10065800D4F8A8128A4209D2D4F8981211F80CE0FA
:100668004EFA03F202F00302012A02D0AE42DED1B2
:10067800F8BD07FA03F343EA0E0301F80C30FFF75D
:10068800EDFEF3E7DC1B002081B3F8B5041F184E1C
:1006980004EB8105032754F8043F1A071AD1D6F84A
:1006A800A422981AC0F301119A424FEA901C4FEA0B
:1006B80041014FEA10100DD8D6F8A8229A4209D95C
:1006C800D6F8982212F80CE04EFA01F303F003036F
:1006D800012B02D0A542DED1F8BD07FA01F141EAAB
:1006E8000E0102F80C10FFF7B9FEF3E7704700BFE0
:1006F800DC1B00202DE9F04F594CD4F8B03285B0FE
:10070800002B00F0A980D4F89C3200269A00C4F887
:10071800B062002A43D00025D4F89812AB08CB5C0D
:1007280005F0030149000B4103F00303032B3FD0FD
:1007380001359542F0D3D4F8B032002BE7D172B32B
:100748004FF0000E76464FF0030A4FF001094FF0C4
:10075800020804E0012B49D0013696421FD2D4F892
:1007680098C2B70806F003051CF807106D0041FA97
:1007780005F303F00303022B0CEB960028D0032BA0
:10078800E8D108FA05F521EA05010CF80710D4F8B4
:100798009C3201369A0096424FF0000EDFD323892F
:1007A8000022013B2381C4F8AC2205B0BDE8F08FDC
:1007B8002846FFF753FED4F89C320135B5EB830F7A
:1007C8004FEA8302A8D3D4F8B032002B9FD1B6E702
:1007D800BEF1000FC0D00AFA05F521EA0501017043
:1007E800D4F89C324FF0010E9A00B5E7D4F8A02255
:1007F800F30806F0070B12F803C001934CFA0BFE3E
:100808001EF0010F02EBD602E5D0D4F8A4023101A4
:10081800415800EB0610A1B102AAB2210CF09AFAD5
:10082800DDE9013242B10DF04DFBDDE902010DF0C9
:1008380019FB0DF05DFB019BD4F8A02212F803C050
:100848001A4409FA0BFB2CEA0B0C82F800C0D4F806
:100858009832D95DD819BEE7D4F89C329A006EE771
:10086800DC1B0020044B1A89002101321A81C3F8CD
:10087800B012FFF73FBF00BFDC1B00203B4BD3E9A2
:10088800A9122DE9F047D3E9A6760023C0E902337F
:10089800C0E90433521AC0E900231D4683619E460D
:1008A8009C461C461A46994619469846B60017F8BB
:1008B800093049000B4103F00303012B49D0022BF7
:1008C80043D0002B39D0013296420ED04FEA92091C
:1008D80002F0030117F809304FEA410A43FA0AF314
:1008E80013F0030301D0012BE1D1012C11D0022C0C
:1008F80002D14169013141618169A14238BF8461F6
:1009080096420FD0012B28D04FEA920902F003013A
:10091800CDE70169013101618169A14238BF846174
:100928009642EFD1C44501D9C0F80CC02D014FEA59
:100938000E13C0E90153BDE8F0870EF1010EC0F8AF
:1009480008E00CF1010C1C46BDE701354560013497
:10095800B9E7013545601C46B5E7E04502D2C0F865
:100968000CC0E0464FF0000CCEE700BFDC1B0020B7
:100978000F302DE9F84306095AD0664C2389002B1D
:1009880056D1B4F83433002B0D460CBF4FF0010E8E
:100998004FF0000E51D1D4F8AC02D4F89C72B84292
:1009A80039D2D4F898C2411E614400221AE00132BB
:1009B800964252D913F00C0F1ED10132964240F2E2
:1009C8009F8013F0300F1CD10132964240F29B8079
:1009D80013F0C00F1AD10132964240F297800130CD
:1009E800B84218D211F8013F13F0030FDFD013F00B
:1009F8000C0F4FF00002E0D013F0300F4FF0000260
:100A0800E2D013F0C00F4FF00002E4D00130B8423A
:100A18004FF00002E6D3BEF1000F09D136F01AFEFE
:100A2800D4F8AC02D4F89C7287424FF0010EB8D8C3
:100A38004FF000084046BDE8F883D4E9CE239A4237
:100A4800A9D336F007FED4F8AC02D4F89C72B842A9
:100A580038BF4FF0010EA4D3EAE78000811A012ABB
:100A680001F1010703D1431C9B08C4F8AC324FEADB
:100A7800970E07F003031CF80E904FEA4308012372
:100A880003FA08F3023143EA090388420CF80E30EE
:100A980013D34FF002084FEA910CD4F898E201F012
:100AA80003031EF80C905B0008FA03F3013143EAD4
:100AB800090388420EF80C30EDD2D4F8A492D4F889
:100AC800383309EB07181E44120140460021C4F8C8
:100AD800386327F06DF8EB074FEA0716AAD500230D
:100AE800D4F8A01249F80630FA080123885C07F008
:100AF800070703FA07F707438F544046BDE8F88312
:100B080080000130AAE780000230A7E780000330A8
:100B1800A4E700BFDC1B0020034B1A8912B908B1F7
:100B2800FFF7F6BC704700BFDC1B002010F00F0277
:100B38001CD11749D1F8A432834218D810B4D1F87F
:100B4800A84284420ED9C31AD1F898429909C3F32E
:100B58000110615C4000014101F0030101294FEAE5
:100B6800131306D010465DF8044B70470022104658
:100B7800704701329918880801F00301205C490088
:100B880040FA01F101F003010229F2D01201E9E76C
:100B9800DC1B00202DE9F84F8E460746002800F0A0
:100BA800A780002972D0574E3489002C72D1D6F80C
:100BB800A412D6F89C32411A080900F1010C0EF172
:100BC8000F05BCEB830F4FEA830A4FEA151580F037
:100BD8009580D6F898924FF001084FEA9C0B0CF0DC
:100BE800030319F80BB05B004BFA03F303F003039C
:100BF800022B53D023B9013404EB0803AB424FD383
:100C080045453FD01FD34444AC424ED2002A41D080
:100C1800D6F8A032C90900F00700595C014101F07B
:100C280001017046FFF7A4FE044698B34FEA081284
:100C3800394626F077FF33892BBB3846FFF768FC27
:100C48002046BDE8F88F05442C4640444FF0030980
:100C58004FEA940ED6F8981204F0030311F80EC068
:100C68005B0009FA03F301342CEA0303844201F818
:100C78000E30EDD1D6F8AC32AA08B3EB950F88BF89
:100C8800C6F8AC223C462046BDE8F88F1D4B1C89AF
:100C9800002CD3D000242046BDE8F88F08F10108C5
:100CA8000CF1010CE24598D1AAE700EB08022844B0
:100CB800904211D94FF0020E9408D6F8981202F01B
:100CC800030311F804C05B000EFA03F3013243EA90
:100CD8000C0390420B55EFD1A5EB0802120107EB6C
:100CE800081000213C4626F063FF2046BDE8F88F37
:100CF80001467046BDE8F84FFFF73ABE4FF00108CD
:100D08007EE700BFDC1B002010B58AB00B4C03A89F
:100D1800FFF7B4FD059B00930949DDE9032320464D
:100D280000F062FF069A099B019200930549DDE9EC
:100D38000723204600F058FF0AB010BD1802040827
:100D480000AE030824AE03082DE9F047DFF864A1DC
:100D58004A49DAF8A4224A4800F046FFDAF89C1219
:100D6800890077D0DFF85081454FDFF85091002592
:100D78000EE0012E3DD02E224249384600F034FFC5
:100D8800DAF89C320135B5EB830F4FEA830161D263
:100D980015F03F0610D005F003067600DAF8982221
:100DA800AB08D35C43FA06F606F00306022E1ED003
:100DB800032EDED16D22DFE7DAF898022C46A2086E
:100DC80004F00303825C5B0042FA03F39B0702D141
:100DD80001348C42F3D3621B7F2A2FD805F0030617
:100DE80076002A014146384600F0FEFED6E73D224D
:100DF800C2E7DAF8A412244B2A018A589A422FD063
:100E0800224B9A422ED0224B9A422FD0214B9A4203
:100E18002AD0214B9A4227D0204B9A4228D0204BE7
:100E28009A4225D01F4B9A4226D01F4B9A4221D076
:100E38001E4B9A420CBF4D2268229DE792094946F3
:100E4800384600F0D1FEDAF89C3224F03F05B5EBC5
:100E5800830FC6D3BDE8F0471549094800F03ABBEF
:100E6800542289E74C2287E7532285E7442283E707
:100E7800412281E742227FE746227DE76CAE0308E4
:100E880018020408B0AE030858300408C023040848
:100E9800901A0408F82E0408882D0408641704081A
:100EA80018170408981F0408F01F040848250408A8
:100EB80088AE0308DC1B0020A8AE03088CAE03082C
:100EC800054A0346106A1A6841688A4202D3521AD0
:100ED8001A6070470068F7E7DC1B0020014441F204
:100EE8000553884204D398B2012838BF01207047BF
:100EF80010F8012B03EB43135340F2E7034B044A6A
:100F08001A620022C3F8F021704700BFDC1B0020E2
:100F18009C6504082DE9F04780460E46FFF7DEFF82
:100F2800124B1C6A07460CB920461AE0D4F80C90FC
:100F3800002504F1180A4D4501D12468F3E7236917
:100F480033F81530BB420ED163695B5DB3420AD1F9
:100F58005AF825003246414626F040FE18B9606826
:100F68002844BDE8F0870135E5E700BFDC1B002019
:100F78002DE9F84381460E46FFF7CCFF02460028CC
:100F880040F08B80FF2E03D9454946480BF064FF9B
:100F9800454CD4F8F001751C90B1D4E97D132B446D
:100FA8008B4229D92944FFF755FA0746D8B9024692
:100FB800D4F8F811D4F8F001FFF74CFAC4F8F0713E
:100FC800802D2F4638BF80273846FFF728FAC4F807
:100FD800F001D0BB2846FFF722FAC4F8F00198BB0D
:100FE80028460CF011FDD4F8F4312B44C4F8F43140
:100FF800D4F8F031002BE3D0D4F8F831D4F8F071FC
:101008001D44314648461F44C4F8F851FFF766FFAF
:1010180049468046324638464FF0000926F082FDA0
:1010280007F80690236AD3E90253AB4225D36D0033
:101038000A2D38BF0A25C5EBC5001830FFF7EFF9B0
:1010480048B9C4F8F001CBE72F460023C4F8F4717F
:10105800C4F8F831D0E700F11803226A026003EB04
:101068008503036103EB450343615368D268C0F805
:101078000C901344C0E901352062236AD3E90321A7
:101088005B6921F812809E54911D236A43F82170F0
:10109800D96858680131D96002441046BDE8F88320
:1010A800B3AE0308EC1D0408DC1B002010B5044691
:1010B80026F0B6FD01462046BDE81040FFF758BFB0
:1010C80007B5019001A8FFF7FBFE019A036933F801
:1010D800120003B05DF804FB07B5019001A8FFF703
:1010E800EFFE019B4269D05C03B05DF804FB07B5D5
:1010F800019001A8FFF7E4FE019B063350F8230096
:1011080003B05DF804FB13B5019001A80C46FFF786
:10111800D7FE019B4269D25C2260063350F8230057
:1011280002B010BD2DE9F8431D46002303600B6093
:1011380013602B60164BDFF85C901C6A07468846E4
:1011480016460CB14C4505D12B68326813442B6008
:10115800BDE8F8833B6801333B60E268D8F80030AB
:101168001344C8F800306269E368D1188A4207D38B
:101178002046FFF7DBFC2B68246818442860E0E76A
:10118800336812F8010B013303443360EEE700BF04
:10119800DC1B00209C6504082DE9F8430D4B0E4F1D
:1011A8001C6ADFF83880DFF838900CB1BC4201D1F6
:1011B800BDE8F883E36804F1180505EB8306B5423A
:1011C80001D32468F1E755F8042B4146484600F05E
:1011D8000BFDF4E7DC1B00209C650408BBAE03088C
:1011E8001802040830B50023202411F8012F0AB989
:1011F800027030BD120600F101051FD50BB1047055
:1012080028460B78124A03F07F036BB9013A12F8AB
:10121800013F13F0800F054600F101000BD003F0E9
:101228007F032B700123E0E712F9015B002DFBDA45
:10123800013BDBB2E9E700F8013CE8E7012B04BF1A
:10124800047028460B7800F8013B0223CDE700BF65
:10125800C2AE030838B5446803682144994205467C
:1012680010D9037B1BB1084800210BF0F5FD01F1F3
:10127800100424F00704083480682146FFF7DFF8DB
:101288002C60A86038BD00BFEC1D040870B504468A
:101298000E4611461546FFF7DDFFD4E901302A4610
:1012A8003146184426F06CFC62682A44626070BDBE
:1012B80070B54668B142044628BF31460D46012143
:1012C800FFF7C8FFA368681C5919721B184426F059
:1012D80057FC6368A06801336360284470BD38B563
:1012E8000129044638BF01210025084621606560B0
:1012F800FFF78AF82573A06038BD38B505460C4657
:101308000131FFF7ECFF6C6038BD0023C0E9013202
:10131800012301600373704738B514460546FFF78B
:10132800DEFF024B2560636038BD00BF95120008E0
:10133800037B10B5044613B98068FFF78DF80023C6
:10134800A36010BD13B501901020FFF75DF8019957
:101358000446FFF7C4FF204602B010BD10B504468E
:1013680048B1037B13B98068FFF776F82046BDE8DB
:101378001040FFF771B810BD38B5037B04460D4621
:101388001BB1074800210BF067FD016880682944FC
:10139800FFF755F82368A0601D442560184438BD40
:1013A800EC1D040838B504460D46FFF753FFD4E991
:1013B80001301D446560184438BDD0E900239A42C5
:1013C80010B5044602D10121FFF7D6FFD4E9013256
:1013D8000021D154A06810BD10B50C460121FFF7BB
:1013E800E1FF047010BD7F29F8B50C46CEB204D8D1
:1013F8000121FFF7D7FF0670F8BD06F03F06B1F5EB
:10140800006FC1F3871546F0800607D20221FFF767
:10141800C9FF65F03F0505704670EDE705F03F052B
:10142800B1F5803FC1F3073745F0800508D20321A5
:10143800FFF7B8FF67F01F07077045708670DBE796
:101448000421FFF7AFFFA40C07F03F0764F00F0477
:1014580067F07F07047047708570C670CCE713B5D6
:1014680004460846019126F0DBFB01990246204616
:1014780002B0BDE81040FFF709BF10B51446FFF7EA
:1014880017FF047010BD10B51446FFF711FF047064
:1014980010BD43688B422CBF591A00214160704728
:1014A80038B50446154662688A42084603D9294475
:1014B8008A4201D8606038BDA368521A184419449A
:1014C80026F05EFB6268521B6260F4E7084611462C
:1014D80027F0E8BA37B505460846019126F0A0FB83
:1014E800044620B102466B6801992868984720464F
:1014F80003B030BD2DE9F74F89469DF830101746E7
:101508000D9A11F0DF0F0646A2EB07023DD03029F5
:1015180025490CA813BF804688464FF0100A4FF0A3
:10152800010A13F0800535D002EBD2746510A2EBE6
:101538006404002D35DDAB46DA45524673683068E1
:10154800A8BF5A46414601929847019AABEB020B55
:10155800BBF1000FF0DC2FB1736830683A4649469A
:1015680098473D44002C0CDD2544A2455746A8BFAA
:101578002746736830683A464146E41B9847002C72
:10158800F3DC284603B0BDE8F08FDFF820804FF089
:10159800100AC6E713F0010401D11546C9E714463D
:1015A800D9E70025D7E700BF310204082002040864
:1015B8002DE9F04389B006460020119D9DF848802A
:1015C800139F8DF80F000AB381421ADA2D228DF885
:1015D8000F204942109A08ACA2F10A000DF1100937
:1015E800B1FBF3FC03FB1C12092A8CBF1218303222
:1015F80004F8012D4C458E4661460ED07345EFD94F
:101608000BE0A80727D52B228DF80F200029E1D160
:1016180030238DF81F300DF11F0415F040099DF897
:101628000F301CD023B30122CDE900822B460DF1E7
:101638000F013046FFF75EFF013F814608AACDE95A
:1016480000872B46121B21463046FFF753FF4844BC
:1016580009B0BDE8F0836A07D8D52022D4E7002B6B
:10166800ECD004AA9442E9D904F8013C013CE5E72E
:101678009946E3E72DE9F04F93B081461D46C80728
:101688009DF874301C9E0693DDE91E7A0C46904640
:101698000BD4A10703D12268794B9A4205D0204682
:1016A8000DF014FA400040F0010416F0810306D151
:1016B800069A302A03D15745B8BF57469A4620465E
:1016C80010F09CFB00280DF1280B18DBB20712D58F
:1016D8002B238DF828300DF12902F006EDB21DD527
:1016E800B8F1020F0DD11346302103F8021B691C13
:1016F80051701A4612E0730701D52023E9E75A46CC
:10170800EBE7B8F1080F60D1B1054FF03003137063
:1017180045BF05F10E03537001320232A2EB0B03F1
:10172800002116F0200F117005930EAA0CBF0B466E
:101738002C23BAF1010F0B92C8BF46F040061022C5
:10174800CDE90C2116F04002CDE902538DF827109F
:10175800079244D0CDE9008123460DAA0CA90BA815
:1017680010F028FA03782D2B804606D18DF8273003
:101778000D9B013B00F101080D93BAF1010F3CDD0F
:101788000D9D079B5545B8BF55462BB19DF8273091
:1017980003B10135059B1D44AF422BDD16F0010353
:1017A800A7EB050527D12C461D4626F001064CB1AE
:1017B800202300930023019432491A464846FFF734
:1017C80099FE04463023069319E0B8F1100FA5D10D
:1017D8001346302103F8021B05F1170188E70AAB0D
:1017E800CDE900830DAA23460CA90BA810F0E2F955
:1017F8008046C2E700250024D7E700252C46079B32
:10180800DBB19DF8273053B100230122CDE9003226
:101818000DF127014846FFF76DFE013F0444059B83
:101828005BB100230122CDE900325946059A4846AA
:10183800FFF760FE059B0444FF1A069B0093BAF16C
:10184800010FC8BF57460D9A01973346414648468F
:10185800FFF750FE04444DB12023009300230949AB
:1018680001951A464846FFF745FE04440B980EAB0F
:10187800984201D0FEF7F0FD204613B0BDE8F08F86
:101888006C220408A79404082DE9F04316468BB08F
:10189800B207DDF84890074698463DD416F0040F85
:1018A8000CBF0023202300930A46139B202102A883
:1018B8000AF0EEF9F30504460DD5431C1F2B0AD890
:1018C8000AAA1444252204F8202C0AAA1A44002142
:1018D80002F8201C1C4616F040051FD09DF8083061
:1018E8002F2B4FF000031BD8012202A9CDE90032AB
:1018F8003846FFF7FFFD09F1FF390546013C0DF1B8
:101908000901CDE90089334622463846FFF7F2FD42
:1019180028440BB0BDE8F0832B23C4E702A9F0E705
:1019280002A91D46EDE700002DE9F04F824689B077
:10193800144600260B461D4613F8012B82B9A9420E
:1019480011D30B78002B00F04681013120234FF092
:1019580000080A4612F8015B7DB94FF00A0C2AE02C
:10196800252AE8D1EBE76F1ADAF80430DAF8000034
:101978003A4698473E442946E3E72D2D03D148F0DF
:1019880001081146E5E72B2D02D148F00208F8E7D7
:10199800202D02D148F00408F3E7212D02D148F0A8
:1019A8000808EEE7302D22D148F040082B46E8E73A
:1019B8000CFB0525303D0F4611F8012BA2F1300034
:1019C8000928F5D92E2A42D17A782A2A11D00A462E
:1019D8004FF00A0C0021174612F801BBABF130009A
:1019E800092809D80CFB01BBABF13001F3E700254E
:1019F800B3E754F8041B023721EAE17B3A786C2AF2
:101A080008BF013797F80090B9F1000F00F0E380A4
:101A1800B9F1780F6BD8B9F1570F1BD8B9F1470F47
:101A280062D8B9F1440F62D9073424F00704F4E806
:101A38000201049338F0D0FFCDE9005B00EE100AF4
:101A4800049B424649465046FFF71EFF63E04FF0AD
:101A5800FF3BD3E7A9F15802202A48D801A151F841
:101A680022F000BFAD1B0008F71A0008F71A00089B
:101A7800F71A0008F71A0008F71A0008F71A0008FA
:101A8800F71A0008F71A0008F71A0008091B0008D7
:101A98002B1B0008911B0008311A0008311A000896
:101AA800311A0008F71A0008F71A0008F71A000890
:101AB800F71A0008F71A0008F71A0008F71A0008BA
:101AC800F71A0008CF1B00083F1B0008F71A000888
:101AD800691B0008F71A0008AD1B0008F71A000870
:101AE800F71A0008AD1B0008B9F1500F6BD0DAF8EF
:101AF8000430DAF8000001223946984701360BE035
:101B080054F8042BCDE9003543463AB13449042250
:101B18005046FFF7EFFC0644791C0BE731490522D4
:101B2800F6E754F8042B8DF81C20CDE90035012286
:101B3800434607A9ECE707A954F8040B0493FFF7F9
:101B4800E2FABBF1FF3F049B014604D0079A934594
:101B580038BFCDF81CB0CDE90035079A4346D7E722
:101B680054F8041B05930846049126F059F8BBF174
:101B7800FF3FDDE90413024602D0584528BF5A4604
:101B8800CDE900354346C3E7CDE90235612300932B
:101B9800CDF804800A23012254F8041B5046FFF7AD
:101BA80007FDB8E729F00F0209F101010F3A01F02A
:101BB8000601D2B2CDE90235CDF804800092C1F118
:101BC80010030022E8E7CDE9023561230093CDF840
:101BD80004801023F5E7304609B0BDE8F08F00BF58
:101BE8000C020408110204080EB403B503AA52F843
:101BF800041B0192FFF798FE02B05DF804EB03B0F6
:101C0800704790F9001003780029024601DB184656
:101C1800704703F07F004023184206D112F8013FB5
:101C280003F0C001802904D0704720EA03005B0854
:101C3800F2E703F03F0343EA8010EFE7431C18463E
:101C48000133027802F0C002802AF8D070470346B8
:101C58000020994200D8704711F8012D02F0C00207
:101C6800802A18BF0130F4E7014403460020994256
:101C78001A4600D87047127802F0C002802A03F191
:101C8800010318BF0130F2E77F289DBF024B185CA3
:101C9800C0F3400000207047420204087F289DBF1F
:101CA800024B185CC0F3C0000020704742020408D1
:101CB8007F289DBF024B185CC0F38000002070474E
:101CC800420204087F289DBF024B185CC0F38010B5
:101CD80000207047420204087F2809D8064B1B5C85
:101CE80013F00C0F06D1A0F15F035842584170471A
:101CF8000020704701207047420204087F289DBFDA
:101D0800024B185CC0F30010002070474202040820
:101D18007F289DBF024B185CC0F34010002070471D
:101D28004202040808B50246FFF7E8FF00B1203276
:101D3800104608BD08B50246FFF7EAFF00B1203A91
:101D4800104608BD3038092884BF20F02000073825
:101D5800704710B501440246E5240020914203D89B
:101D6800B0FA80F0400917E012F8013B30B103F0F7
:101D7800C003802B11D1431ED8B2EFE7BF2B09D97E
:101D8800F72B09D8DB0803F0060344FA03F303F042
:101D98000300E3E71B06E1D510BD0020FCE702398C
:101DA80081420B4603D20233181A401070471A8832
:101DB8000239002AF4D0F6E7B2EB131F70B54FEAE8
:101DC800131415D9121B03F00F0301EB4401154638
:101DD8000E46012D31F8024B18BF3468DC40A4B21E
:101DE800013D20F8024BF3D104B9013A104670BD09
:101DF8000022FBE7F0B5059F0024D21B2646A74228
:101E080010D100EB470C01EB47010024A24214D18A
:101E18000CEB42031EB101212CF812100233181AE0
:101E28004010F0BD31F8145033F814C065443544FF
:101E380020F814502E0C0134E1E731F814503544E1
:101E48002CF814502E0C0134E0E7F0B4049F002560
:101E5800D21B2C46AF420BD100EB470601EB4705DE
:101E680000239A420FD106EB4201F0BCFFF797BF5F
:101E780031F81560344433F81560A41B20F8154078
:101E880024140135E6E735F813100C4426F81340FE
:101E980024140133E5E72DE9F043079CDDF828E039
:101EA800DDE908760239154684464FF6FF78A4EB3B
:101EB800020955B900EB42011FB1012320F8123085
:101EC8000231BDE8F043FFF76ABF31F8024F013D28
:101ED8004444264405EB0904AC4296BF33F8024B50
:101EE8004FF6FF744444744486EA040E17FA8EF7DA
:101EF8002CF8027B4FEA144E360C3F0CD9E738B564
:101F080002290446806838BF02210D4618B12368AB
:101F1800B1EB930F07D96900FEF791FA2368A06027
:101F280065F39F03236038BD38B504460C20FEF7DF
:101F38006BFA23682278054602F00102C3F39D007C
:101F480023F0030313432B6063686B604000FEF7C4
:101F58005BFAA8602268A168C2F39D02520025F0CE
:101F6800E1FD284638BD10B500EB410002EB410207
:101F780009B9084610BD30F8023D32F8024D1B1B66
:101F8800002B02DB04D10139F2E74FF0FF30F1E713
:101F98000120EFE710B5044638B18068FEF75CFA17
:101FA8002046BDE81040FEF757BA10BD38B50546C3
:101FB8000C460221FFF7A3FF002C2B78B4BF0122A7
:101FC800002262F300032B70AB68B4BF6142214664
:101FD800023B012223F8021F090C104602F10102FC
:101FE800F8D1686038BD0023C0E9003383607047CA
:101FF80028B103789B0702D48068FEF72DBA704792
:1020080038B505460C464968FFF779FF22782B78E2
:10201800A86862F300032B7063686B606268A1684C
:102028005200BDE8384025F07DBD0A4629B901783F
:10203800426062F3000101707047FFF7B7BF08B54F
:10204800FFF7D1FFBDE80840FFF7EFBF920042F06D
:10205800020210B402600022C0E901215DF8044BBD
:102068001946FFF7E2BF2DE9F8439DF82070914625
:102078009846042106464C46FFF741FF45463FB1C6
:10208800002C78F100030EDAD9F1000468EB48055A
:10209800337867F3000333700023736054EA050351
:1020A80003D1BDE8F8830027F2E7D6E90132591CCD
:1020B800716022F81340230C43EA05432A0C1C469E
:1020C8001546EBE72DE9F3418DED010A019C0378F4
:1020D800E20F62F300030370C4F30F4313F4FF43EA
:1020E800074608D13B786FF300033B7000237B6001
:1020F80002B0BDE8F081B3F5FF4FF3D0C4F3C75386
:10210800A3F17F05002DEDDB05D1012102B0BDE86B
:10211800F041FFF74BBFB3F16F0848BFA3F1600868
:10212800C4F31604162D4FEA281844F4000421DCE1
:10213800C5F11705EC4000252E4641463846FFF705
:10214800DEFEC7F8048026B1B8687200002125F0C9
:102158002FFD45B1BB6804FA05F223F81620C5F136
:102168001005EC400136B045C2D0BB6823F81640D4
:10217800240CF7E7B3F1960605F1090548BFA3F16A
:10218800870605F00F053611D7E72DE9F843044611
:102198008F18C2F35B020D46511C9846089EFFF744
:1021A800AEFE237868F3000323700023636029469A
:1021B8001FFA86FCB942084602D3401BBDE8F883E3
:1021C8000278A2F13003092B01F1010105D9A2F12E
:1021D8004103192B14D8A2F13703B342EDD2D4E945
:1021E80001E0F0468146B8F1000F10D100EB4E0235
:1021F80013B120F81E300232121A52106260D9E769
:10220800A2F16103192BD8D8A2F15703E5E7B9F871
:10221800002002FB0C3329F8023B08F1FF381B0CA5
:10222800E1E7F8B5044615461E46C1B1531E1E44E3
:102238004FF0FF37E9000F3109092046FFF75FFE2D
:10224800237800216FF30003237061604DB9D4E94E
:10225800011000EB4101FFF7A2FD6060F8BD012706
:10226800E8E700230F2908DC32788A401343013D50
:102278009BB201F108013E44F4D16268501C6060D1
:10228800A068103920F81230E0E738B50B780578E7
:10229800044603F0010305F00100181A0CD1636825
:1022A8004A68934209D30BD88A68A0681946FFF791
:1022B8005AFEEB0748BF404238BD4FF0FF30F8E701
:1022C8000120F6E7884210B5044601D0FFF798FED2
:1022D80023786FF30003237010BD884210B50446BD
:1022E80001D0FFF78DFE63683BB12378C3F300028A
:1022F800C2F1010262F30003237010BD88421FB5CA
:10230800044601D0FFF77CFE626862B901212046CD
:10231800FFF7F5FDA268012313806360237843F07B
:102328000103237010E02378D9070FD5A1686FF354
:10233800000323700123ADF80E30009308460DF119
:102348000E03FFF782FD606004B010BD511C2046EB
:10235800FFF7D5FDD4E901210123ADF80E30009334
:1023680008460DF10E03FFF745FD6060D6E72DE93D
:10237800F8434B6805460E46144603B12AB9314660
:102388002846BDE8F843FFF73BBE02F10F014FEACC
:10239800111803EB1111FFF7B2FDD6E9010208EBA2
:1023A8000007AB6807F1004114F00F0401F1FF3199
:1023B80003EB410308BF102402EB400E0146994687
:1023C8000022C4F1100401BB6FF0010C0CFB00FCEF
:1023D80022FA04F403EB0C0023F80C40C8F10103C3
:1023E80000EB430308F1FF321846520025F0E0FBEA
:1023F800831E17B133F8172092B16F6032782B78AB
:1024080062F300032B70BDE8F8833EF802CD4CEA76
:10241800020222FA04FC29F802C912040139D2E79F
:10242800013FE6E7F0B50E46496885B00546144613
:1024380001B12AB931462846FFF7E2FD05B0F0BDE3
:10244800FFF75DFDD6E901212346A868FFF7B4FC34
:10245800686032782B7862F300032B70DB07EDD5C8
:1024680000237168ADF80E302209994201D09342D9
:102478000FD19142E2D9B36804F00F0433F8122067
:10248800012303FA04F4013C224213D0ADF80E30C4
:1024980008E0B76837F8137057B101239142ADF8D7
:1024A8000E30E8D8A968012348B90B806B60C5E7EE
:1024B8000133DAE7BDF80E30002BBFD0F2E7009306
:1024C80002460DF10E030846FFF794FC6860B5E775
:1024D80073B553680C46496899420646154606D3B3
:1024E80008D89268A068FFF73EFD002802DA234664
:1024F8002C461D4623782A7861685340DB071BD495
:1025080001313046FFF7FBFC6B680093D4E90121E9
:10251800AB68B068FFF76EFC706023787268C3F32D
:102528000003002A0CBF002303F00103327863F391
:102538000002327002B070BD3046FFF7E0FC6B68F5
:102548000093D4E90121AB68B068FFF77EFCE3E7AC
:10255800F7B553680C46496899420546164606D3AE
:1025680024D89268A068FFF7FEFC00281EDA2346EC
:10257800012734461E462378327861685340DB07CA
:1025880016D501312846FFF7BAFC73680093D4E9E1
:102598000121B368A868FFF72DFC68606A682B788A
:1025A80092B962F300032B7003B0F0BD0027E2E795
:1025B8002846FFF7A4FC73680093D4E90121B368A7
:1025C800A868FFF742FCE8E7227802F00102002F32
:1025D800E7D0C2F10102E4E72DE9F04F15464A6859
:1025E8006B689A420E463EBF2E460B461D46337810
:1025F8007168DB0785B0044621D42B7813F00107F6
:102608001DD1FFF77CFCD5E9011CA068B6683B46E4
:1026180099420BD100EB4101FFF7C1FB23786060C1
:102628006FF30003237005B0BDE8F08F36F8132070
:102638003CF813502A4020F813200133E8E7013111
:102648002046FFF75CFC96F800A02B78D6F804C06B
:10265800A0688AEA0307FF4307F0010E47F3000763
:10266800BFB2D5E901120AF001084AF3000A02973D
:102678001FFA8AF703F00109019743F30003B768CB
:102688009BB2A1EB0C01A7F1020A009367468346AF
:102698000391BFB900EB4C01BEF1000F03D0012339
:1026A80020F81C300231FFF77AFB606033782A7813
:1026B800C3F30003C2F300021340227863F300025D
:1026C8002270B0E73AF8021F019B5940039B013F73
:1026D8008844D919B9429BBF32F8021B009B009964
:1026E80059408944029B08EA090159401EFA81F1C0
:1026F8002BF8021B4FEA19494FEA18484FEA114EC6
:10270800C7E72DE9F84F16464A6873689A420D469E
:102718003EBF35460B461E462B786968DB070446E4
:1027280031D4327812F001072DD1FFF7E8FBD6E952
:10273800013EA9686D68D4F808C0ED1A3A4693427C
:1027480012D101EB430100220CEB4303954214D153
:1027580003EB4503A3EB0C035B10636023786FF373
:1027680000032370BDE8F88F31F812003EF81260BC
:1027780030432CF812000132E1E731F8120023F857
:1027880012000132E2E701312046FFF7B8FB2F784B
:1027980033786968A068AD68D6E901E203F00109F9
:1027A80047F3000643F3000307F00108A5F1020C04
:1027B800B6B29BB20F4682460125AEEB010E47B971
:1027C80000EB4101FFF7EBFA2378606043F0010367
:1027D800C7E73CF802BF013F8BEA060BD8440EEB73
:1027E800070BBB4596BF32F802BB9B468BEA030B2F
:1027F800D94448EA090B6FEA0B0B15FA8BF52AF84E
:10280800025B4FEA19494FEA18482D0CD7E7F0B593
:1028180016464A6873689A4238BF0B460C463CBF56
:1028280034461E462778337861685F4017F0010701
:1028380085B005463AD1FFF762FB237813F0010310
:1028480028D1D6E9012C6168A868A768891A9A4234
:1028580011D107EB4207002300EB4202994213D142
:1028680002EB4101FFF79BFA2B7868606FF30003D6
:102878002B7005B0F0BD37F813403CF81360744076
:1028880020F813400133E2E737F8134022F81340E9
:102898000133E3E7CDE90277019773680093D4E940
:1028A8000121B368A868FFF7F6FADDE70131FFF701
:1028B80026FB3378A868DB4303F0010303932378EE
:1028C800DB4303F001030293012301937368009330
:1028D800B368D4E90121FFF7DEFA2B78686043F08A
:1028E8000103C5E72DE9F04F4B6885B004460E4655
:1028F80015460BB1536843B923786FF3000323706F
:102908000023636005B0BDE8F08F81422ED1FFF748
:102918000BFBA5420646074600D105466B68716861
:1029280020461944FFF7EBFA2268A068C2F39D021B
:102938005200002125F03CF9B368D4F808E0D6F835
:1029480004A00193AB68029300226B6803930EEB1B
:102958004A08F4461146039B934231D0DDF804B08F
:10296800CDF800A0ACF10200002318E0824204D1A7
:10297800FFF7DAFA05460746D0E70027CEE730F832
:10298800029F99443BF8023B1946029B33F81230E8
:1029980003FB01930099038001391B0C00910099F6
:1029A8000029ECD14146881C13B1A8F80030014633
:1029B800A1EB0E0149100CF1020C01328046CAE766
:1029C80061602A78337853402278384663F30002EE
:1029D800227005B0BDE8F04FFFF7DCBA4B6870B560
:1029E8000546144613B11378DA0706D52B786FF32A
:1029F80000032B7000236B6070BD636823B9BDE8CA
:102A080070400121FFF7D2BA0846FFF78DFA064653
:102A18002046FFF789FA012104462846FFF7C6FA3F
:102A2800636883B1A3681B88DB0704D5324629464F
:102A38002846FFF757FFD4E9012101230846FFF78D
:102A4800BBF9606038B93046FFF7A4FA2046BDE804
:102A58007040FFF79FBA324631463046FFF742FFD3
:102A6800DEE72DE9F04F0C4651688FB0174601316B
:102A780005460293FFF743FA7A68A86801325200C4
:102A8800002125F095F82B786FF300032B700023B5
:102A98006B60796820460131FFF731FA39462046E4
:102AA800FFF7AEFA029BD4F804905B6801934B459C
:102AB80042D8029BA668D3F80880AB6803933DD33D
:102AC800424649463046FFF74EFA002832D1039A6B
:102AD8006060012313806B6023786168C3F3000290
:102AE80000290CBF002202F0010262F30003029ADF
:102AF80023703B7812785340DB0718D56B682A7827
:102B0800003B18BF012363F300022A70636873B1A6
:102B18004FF0FF310BA8FFF792FA0BAA2946284677
:102B2800FFF7D6FC029A21462046FFF7D1FC0FB0EA
:102B3800BDE8F08F013001D10023CCE7019B03F100
:102B48000042013A5300049338F812304FF0000E57
:102B580018040EF1010156D54FEA490303F1020C9E
:102B68000593002006EB0C0309F101011FFA8EFA08
:102B780026F8190006936160B446CAF1100B069B4B
:102B88009C4544D3019B38F81220012B02FA0AFB1A
:102B980009D9049B08EB0302CAF1100032F8022C91
:102BA800C2404BEA020B019A059B891A6960039A95
:102BB80001F10041013902EB41020592049A023207
:102BC8000992A8F1020233440892626804920499B7
:102BD800019A8A4227D301F1004B0BF1FF3B06EB28
:102BE8004B0B0021CAF110005E4570D96FF000410F
:102BF8006B682BB103985A1830F81220002A70D04D
:102C08006FF0004172E05B009BB28E46A0E7BCF813
:102C180000E00EFA0AF949EA00002CF8020B2EFA35
:102C28000BF080B2ABE7198833F8022C42EA014274
:102C38000999B2FBFBF2591A069100200899DDF8B0
:102C480018C00791804663450BD819880844B8BB5B
:102C5800059921F80229049A0591013A023B62601C
:102C6800B3E70799BCF8009031F802EF07910EFA24
:102C78000AF141EA18481FFA88F1514319FA80F914
:102C88001FFA81FE090CA9EB0E0EC1EB20412CF8AE
:102C980002EB01EB2E40D6E739F802EF0EFA0AFEF6
:102CA8004EEA1848B1F800E01CFA88FCF44421F810
:102CB80002CB4FEA1C4C8B42EED86044013AC6E77F
:102CC8004FF0000CDDF820900699E046F3E7BBF8DA
:102CD800003043FA0AF20A4383402BF8022999B2DA
:102CE80082E7013B6B6083E7013B63606368002B0D
:102CF8003FF4F2AE5A1836F81220002AF4D0EBE668
:102D0800F0B51F464B6885B004460D4616464BB1D4
:102D18001378DA0706D47B68012B0BD1BB681B88B4
:102D2800012B07D123786FF300032370002363601E
:102D380005B0F0BD01212046FFF738F97368002B74
:102D4800F6D02846FFF7F0F805463046FFF7ECF8CE
:102D5800064601A8FFF747F97368B3B1B3681B8843
:102D6800DB070AD52A4621462046FFF7BBFD3B462E
:102D78002246214601A8FFF774FED6E90121012366
:102D88000846FFF719F8706048B901A8FFF730F94D
:102D98002846FFF7FFF83046FFF7FCF8C8E72A4651
:102DA80029462846FFF79EFD3B462A46294601A8A4
:102DB800FFF757FED0E710B5D0E90121034601EB34
:102DC80042020020914204D31B78DB0748BF4042EF
:102DD80010BD32F8024D44EA0040F3E730B5D0E9BF
:102DE8000124002304EB4202944206D30278D2075E
:102DF80048BF5B420B60012030BDB3F5004F04D2E1
:102E080032F8025D45EA0343EEE70020F4E72DE9D6
:102E1800F0470546D1B19818D5E901840026A4F1F8
:102E2800020E4FF0010C374603EB0209B8F1000F10
:102E38000ED1B9B3C21A18462B7813F0010FBDE8AA
:102E4800F04714BFFF21002124F0B2BE1846E3E783
:102E58003EF8024F103744EA064695F800A0072FBF
:102E68000AF0010A02DC08F1FF38DFE7B4B2BAF170
:102E7800000F06D0E4435CFA84FC1FFA8CF4CCF310
:102E8800072CE4B249B100F1FF3A00F8014C534570
:102E98000BD0083F360A5046DFE782460AF8014B56
:102EA800CA45F5E71A44121AC6E7BDE8F0870000DC
:102EB800D0E901329FED0C0A9FED0C7A02EB430337
:102EC8009A4205D30378DB0748BFB1EE400A704742
:102ED80033F8021D07EE901AF8EEE77AE0EE077A6B
:102EE800B0EE670AECE700BF000000000000804772
:102EF8002DE9F84F44689DF828B00B9F81468A4613
:102F080015461E469CB982B1551E3B4615F8011F51
:102F1800184639B930230370002300F8013FC01B5D
:102F2800BDE8F88F03F8011BF0E73846F2E76400C4
:102F38002046FDF769FAD9F808108046224624F0A1
:102F4800F1FD3846394608EB0402A6F13A03A2F12E
:102F5800020C0026E045644639D93036392E0C4635
:102F680088BFF61804F8016B4646B242B44638D812
:102F7800BBF1000F0AD00126A4EB000CBCF1030F33
:102F880002BF8C1C81F801B02046F6B14046FDF71F
:102F980063FA5DB1284624F043FE2A18611E1346E1
:102FA800AB4229D8954288BF0020044499F80030E4
:102FB800DB0744BF2D2304F8013B3B46621E9A42BF
:102FC8001FD800232370E01BAAE72146BFE7248807
:102FD80044EA0646B6FBFAF42CF802490AFB1466E2
:102FE800B8E7BCF800C00236BCF1000FBDD0BBF199
:102FF800000FEAD00026BFE713F8016D01F8016F52
:10300800CEE71978107803F8010B02F80119D6E712
:10301800D0E9023293423DBF5A1C826018784FF0C3
:10302800FF307047036810B5044613B14068FDF7D8
:1030380013FA2046BDE81040FDF70EBAF8B505466C
:1030480010200C461F461646FDF7DEF9054B846036
:10305800C0E900743444C4606B60034B2860AB6003
:10306800F8BD00BF193000082D30000802690A2A8F
:1030780010B5044635D1836A013383620123A269FE
:10308800E36263696261226F2361002A31D0616E55
:103098008A423FBF501CA16E20678A5C28BF00226D
:1030A800A2613BB9E2692261226A6261626AA26135
:1030B8006366236763690D2B08D1A3690A229342CB
:1030C800626103D1D4E901039847A061A369013380
:1030D80006D163695A1C03D00A2B1CBF0A23A361BB
:1030E80010BDC36A092A04BF073323F0070301335D
:1030F800C5E7D4E901039847A061DBE770B504464A
:103108000D4600262069431C01D1304670BD0A28AF
:1031180008D115B1636B002BF7D02046FFF7A6FF47
:103128000126EFE7FEF7B0FD18B12046FFF79EFF36
:10313800E8E72369232B08D12046FFF797FF236987
:103148005A1CDFD00A2BF7D1DCE75C2BDDD1636991
:103158000A2BDAD12046FFF789FFE6E70369272B18
:103168002BD0222B29D0A3F1620113291ED8174A8C
:10317800CA40D2071AD54269272A1ED0222A1CD053
:10318800722B1CD1662A06D18269272A15D0222AD9
:1031980013D0722B15D14369622B0CD18069272873
:1031A8000BD0A0F12203584258417047662BF0D14A
:1031B8004269722AE8D00020704701207047662BC8
:1031C800F6D0622BF7D14369722BE6E711000900AC
:1031D8002DE9F04F436E85B00446A3B1036F93B950
:1031E80029216030FEF7F8F82369E36163692362F7
:1031F800A3696362A36E1A7822615A7862619B7828
:10320800A36103232367002161652046FFF776FF4A
:10321800256BA36A6364002DE36AA36407DA0823B5
:1032280084F84C300135256305B0BDE8F08F04D033
:10323800072384F84C30013DF5E7002834D0626B51
:1032480092BB062284F84C20D4E90F205D1E6FF053
:103258000043D11830F811108D42E5D019D9A16B6F
:103268008A4207D308314900FDF7E9F8A36B2064C7
:103278000833A363D4E90F32591CE16322F81350D1
:10328800236B01332363CFE7013AE263226B013AF0
:103298002263E26BD11830F811108D42F4D3C3D0F9
:1032A800022384F84C30BFE72669771C01D100233C
:1032B800F7E72046FFF752FF8146002800F0C88153
:1032C800002384F84C302369752B4FD0622B07D12B
:1032D8006369722B4FD1C84602270D23002612E0DE
:1032E800722B06D16369622BF5D0662B47D1052373
:1032F800D7E7662B47D16369722BF8D04E46012772
:103308000C234FF0000894F84C20002A3DD184F893
:103318004C303FB12046FFF7A9FE022F02D12046CC
:10332800FFF7A4FE2369222B14BF2723222320465C
:103338000093FFF79BFE2369009A934228D16369A3
:103348009A4225D12046FFF791FE2046FFF78EFED0
:103358004FF0030A26B1BC4904F16000FEF77FF87C
:10336800002304F1500704F1600B23E00127002635
:103378000C23B046C7E701270D230026C1E7C8463E
:1033880001270C23AAE72F46F1E79A42C1D04BE761
:103398004FF0010ADEE70099914237D101333846F0
:1033A800CDE90133FEF71FF8019B01932046FFF793
:1033B8005DFE019B2269511C00F04081BAF1010FAA
:1033C80002D10A2A00F03A815345E4D3194604F1A0
:1033D8005000FEF75EF801212046FFF78FFE2046D9
:1033E800FFF7BCFE00287FF46EAF1DE72046FFF70D
:1033F8003DFE21697B2920D13846FDF7EDFF2046A7
:10340800FFF734FE7B213846FDF7E6FF21690EB150
:103418007B29EBD05C2940F00C8120460191FFF715
:1034280025FE23690199B8F1000F42D0019338466F
:10343800FDF7D9FF019B1946D7E028215846FDF72B
:10344800CBFF636E00222169481C04D0DAB93A29FF
:1034580001D07D2917D1D4E91921881810F8010C59
:103468003D2807D1D21A19443846FDF70FFF636E7D
:10347800013B636658462921FDF7AEFF2C215846CB
:10348800FDF7AAFFBEE721F020005B280CD101322E
:10349800C9B25846CDE90132FDF79EFF2046FFF735
:1034A800E5FDDDE90132CEE75D2808BF02F1FF3214
:1034B800EEE7782B06D85B2B0BD8222B74D053D889
:1034C8000A2B4FD0A3F13001072900F2AB80032368
:1034D800A1E0A3F15C021C2AF4D801A151F822F062
:1034E800B1350008CD340008CD340008CD340008CB
:1034F800CD3400085D35000889350008CD34000852
:10350800CD340008CD34000899350008CD340008C2
:10351800CD340008CD340008CD340008CD3400087F
:10352800CD340008CD34000891350008CD340008AA
:10353800CD340008CD34000885350008CD340008A6
:103548008D3500089D35000895350008CD340008F4
:1035580005360008072194F84C300C2B65D1384605
:10356800FDF741FF002320E7552B13D0AAD8272BBE
:103578001AD04E2BA6D135480AF046FC0D21EAE7B1
:103588000821E8E70921E6E70A21E4E70B21E2E759
:103598000C21E0E794F84C200D2A07D15C2138462D
:1035A8000193FDF720FF019B1946D4E7752B0CBF4B
:1035B80004230823002116E0204603930191FFF716
:1035C80055FD226902921046FEF77CFB002800F0A8
:1035D8004C810199029A090110460191FEF7B2FB4C
:1035E8000199039B0144013BE6D2481CBAD0B1F5CE
:1035F800881FB0D3012384F84C30B3E70223D9E7FE
:103608002046CDE90113FFF731FD22690199029B9C
:10361800303A02EBC1016269303A072AE5D8013B2A
:10362800EED1E2E701935C2101E7FF29E2D80D2BF7
:10363800E0D1C9B23846FDF7CFFE93E753453CBF0A
:10364800032284F84C20C1E6070304081003040889
:103658003046FEF723FB064620691EB95F2801D0D5
:103668007F283ED9092384F84C3004F15005C1B2B3
:103678002846FDF7B1FE2046FFF7F8FC2069421CFA
:103688001BD12846FDF799FE7A4F0646002557F8C4
:10369800041B304624F0D2FA00281CD10F35EDB2B5
:1036A800122D84F84C507FF4BFAD734BD3F8FC3126
:1036B800002B0CBF11230F23F3E5FEF7EFFA40B9F7
:1036C80020695F2805D07F2803D8FEF7F1FA002883
:1036D800D7D0217CCCE7FFF6A7AD0135242DD6D174
:1036E800A2E5FEF7E5FA68B321692E2935D10B2347
:1036F80084F84C3004F150052846FDF774FE204646
:10370800FFF7B4FC0B272069431C3FF48DAD002E56
:1037180035D120F02003452B31D16521284684F886
:103728004C70FDF760FE2046FFF7A0FC21692B29AD
:1037380001D02D29E7D12846FDF755FE2046FFF791
:1037480095FCE0E723692E2B04D16069FEF7B0FAF7
:103758000028C9D1494D002631E00A23302984F8D0
:103768004C30C7D1636943F02003623B162B9EBFE0
:10377800434DDD4005F0010505F00106BAE7FEF707
:103788008DFA28B121692E290DD184F84C70D2E721
:103798002069FEF78DFA0028F4D123692E2BF1D089
:1037A8005F2BCBD040E521F020034A2BC3D1ECE7B7
:1037B800652F01D0632F00D10135013601352F78EF
:1037C80017B12369BB42F3D12046FFF74FFC0FB96D
:1037D800012366E5212F07D123693D2BF8D1204627
:1037E800FFF744FC3A235CE52E2F0FD123692E2BDB
:1037F80002D163692E2B01D05D2352E52046FFF7E5
:1038080035FC2046FFF732FC0E234AE503353346E4
:1038180015F8027C632F0FD0652F0DD0194AD35CA1
:1038280084F84C3003F0FD02552A01D0592B14D1ED
:10383800636B01336363F7E415F8012C2169914246
:1038480006F1010607D12046FFF710FC3346652F25
:10385800E4D00235DCE7632FFAE7562B02D0582A6A
:103868007FF4E2AC636B013BE4E7012384F84C305E
:10387800014670E6D8030408DC1B0020C2020408D5
:1038880001204000A90304087FB5064601AD742055
:1038980085E80E00FCF7B8FD0446034695E80700E6
:1038A80043F8046B83E8070001236FF00102C4E9C1
:1038B8000A3200250A22C4E90E23C4E90C55142053
:1038C800FCF7A2FD2021206404F15000FDF707FD5C
:1038D800294604F16000FDF702FD236C20461D8097
:1038E800C4E905552561FFF7C1FB2046FFF7BEFB7C
:1038F8002046FFF7BBFB2046FFF76AFCA36C012BB1
:1039080018BF0723204618BF84F84C3004B070BD98
:1039180030B585B001AC05462046FFF78FFB94E82B
:103928000E002846FFF7B0FF05B030BD30B585B0B2
:1039380001AC0146054620461EF0E8FC2846FDF786
:10394800B5FB94E80E00FFF79FFF05B030BD10B53A
:10395800044690B1C3684068984704F15000FDF7E9
:10396800E7FC04F16000FDF7E3FC206CFCF774FD54
:103978002046BDE81040FCF76FBD10BDD0E9043209
:10398800013B036152F8230070470369C943194496
:10399800436953F821007047F8B5446A06460D4656
:1039A800B4B1D4E900030B44834222D90831002280
:1039B80001442046FCF74EFD0246B8B9616820462E
:1039C8000831FCF747FD63682360336A636034623B
:1039D800802D2F4638BF802707F10800FCF714FD1B
:1039E8000023076043600446706202E023682B44AA
:1039F800236060680544656008342044F8BD38B524
:103A0800D0E903329A4204460D4608D31033990090
:103A18004069FCF714FDE36860611033E360D4E9A2
:103A28000432591C216142F8235038BDF8B50446C8
:103A38001D46D0E9000383420F46164608D31030CE
:103A4800C100A068FCF7FBFC2368A060103323606A
:103A5800D4E90103421C626053F8301067F3170180
:103A680043F8301003EBC002D6705560F8BD10B4AF
:103A78008469CAB20023616C5DF8044BFFF7D6BFB6
:103A880010F001021CD110F003030CD000F00F035A
:103A9800062B15D00A2B11D100090E3803288CBF2C
:103AA80000200120704770B102793A2A08D02D2AE7
:103AB80008D18068B0FA80F0400970471046704716
:103AC8000120704718467047C20702D540F0010030
:103AD8007047830710D0030900F00F00062803D1B0
:103AE800D80040F002007047A3F10F00022809D85F
:103AF800064B53F82000704730B103793A2B03D1B5
:103B0800806870470248704702487047DC04040820
:103B1800882904085030040838B505460C46FFF7D4
:103B2800AFFF38B12846FFF7CFFF0BF053F9031B5F
:103B38005842584138BD2DE9F04105460F46144614
:103B48001646B6B93146204612F080FB804600F191
:103B58000801CCB90C212846FFF71EFF4FF49D73CE
:103B6800C0E90138014607602846FFF748FF0120F1
:103B780008E0013E31462846FFF707FFFFF780FFC0
:103B88000028DED1BDE8F0812846FFF7F7FE06469B
:103B9800FFF79AFF013C41F82400002ED9D0B30763
:103BA800D7D1686A00F108039E42D2D34268134411
:103BB8009E42CED273681B0A0233A2EB8303436092
:103BC800C7E738B5D3070D46144602D542F00100C1
:103BD80038BD0C21FFF7E0FE4FF49D73C0E90134B6
:103BE8000560F5E7F7B5866996F84C30092B054668
:103BF8000F461FD1D6E91510FDF7BAF9902F0446E4
:103C08000ED1C100002241F0020105F128000AF09E
:103C180083FC28B14268716C2846FFF7D2FF02E0A6
:103C2800200140F002000146284603B0BDE8F040FC
:103C3800FFF7E5BE0A2B07D10022D6E91510334657
:103C480008F072FA0246E6E70B2B12D10096D6E985
:103C580015100023012208F0E5FA04460C21284635
:103C6800766CFFF799FE4FF49D73C0E90134066046
:103C7800D9E70C2B13D1D6E915100A2906D8FDF778
:103C880077F930B1000140F00600CCE7FDF742F9C2
:103C9800F7E7D6E91521074810F0C4FBDDE70D2B3F
:103CA80004D1D6E9151010F0A9FCD6E7180140F0A8
:103CB8000A00B8E7F82E040810F0010204D040F01A
:103CC8000100086001207047A8B110F003030FD16C
:103CD80002793A2A0ED183680B6013F00100F1D102
:103CE8009A0708D11868044BC31A584258417047BC
:103CF80010467047184670476C2204080021FFF7E9
:103D08000BBF0121FFF708BF2DE9F04F2D2A85B021
:103D18000446884616461D460BD10021FFF735FE9E
:103D2800B8B1870702D10379922B12D005B0BDE84C
:103D3800F08F922A20D10021FFF727FE014640B1DB
:103D4800880706D10B79952B0AD12046FFF716FE76
:103D5800013DA6F11E03012B6AD8A9462F461AE099
:103D6800962BF6D12046FFF709FE4B6823F0FF0398
:103D780043F092034B60D9E7962A08BF0135E8E77C
:103D88001E2E48D1FFF7BDFFC8B95046FFF7B6FF52
:103D9800002808BF5F4607F1FF3BB9F1000F0ED0BE
:103DA80009F1FF3949462046FFF7EFFD23696269AB
:103DB800DB1B824642F82300B9F1000FE0D1002155
:103DC800594530D16D1A012DB0D0A6F12303022B2D
:103DD80001D92A2E70D1691E2046FFF7D6FD01A908
:103DE800FFF76AFF00285BD0232E3BD0242E3CD05F
:103DF800252E0CBF4FF018094FF02209AF1E002FD7
:103E080036DA002D40F06B812946019A2046FFF7EB
:103E1800D8FE01461FE0FFF771FF0028CFD15046BA
:103E2800FFF76FFFB4E72046FFF7A8FD0131C7E7AA
:103E3800202ECAD100212046FFF7A7FD0746FFF72D
:103E48005DFF60B93846FFF75CFF0028BDD0FA2156
:103E58002046FFF793FD2046FFF7D1FD66E74FF4B4
:103E68008D71F5E74FF01609C8E74FF01709C5E758
:103E780039462046FFF789FD02A9FFF71DFF78B1F3
:103E8800B9F1220F07D0DDE90112484609F0D8FD43
:103E9800013F0190B3E702980DF0B0FF0028F2DA75
:103EA800922E40F02181D4E9012303EBC20313F8D9
:103EB800053C2D2B2FD130E1A6F12603022B45D846
:103EC800691E2046FFF761FD01A9FFF7F5FE0028EE
:103ED80000F03C81A5F10209B9F1000F91DD09F16B
:103EE800FF312046FFF751FD02A9FFF7E5FE90B12B
:103EF80049462046FFF749FDC0F3071043280AD07A
:103F0800452808D02538C7B202980DF077FF1A2F38
:103F18000FD8002811DAA91C89002046FFF73CFDBC
:103F280046EA05230746C0F80080436000F108010F
:103F380002E11E2F01D90028EDD0DDE90112384633
:103F480009F07EFDA9F102090190C5E7292E19D1D2
:103F580000212046FFF719FD01A9FFF7ADFE002853
:103F6800D9D001212046FFF710FDC0F307103428EF
:103F780018BF4038019914BFC0B2022008F0C4FF2E
:103F880001903EE7052E6AD100212046FFF7FDFC8F
:103F980007460028BFD010F0030A04D1436803F095
:103FA800FE03562BB7D001212046FFF7EEFC00F0A8
:103FB8000F03022BAFD1BAF1000FACD13B792C2BF8
:103FC800A9D1BB6803F00F02022AA4D11B09482B10
:103FD800A1D1FB68002B9ED09A079CD11A79302A70
:103FE80099D1D3F808B04FEA10195846FFF748FDA1
:103FF80068B9584958480CF06DFDA1693A680968D4
:10400800054653460CF030FE2846FCF7D9F95846C9
:10401800FFF75AFD4FEAC9010746012241F00201A4
:1040280004F128000AF078FA47604846FDF75FF87F
:1040380003785F2B20460BD1FFF7A0FC2046FFF743
:104048009DFC0023082219462046FFF75DFE6DE619
:10405800FFF794FC59462046FFF7D1FC5BE72C2E6E
:104068007FF41EAF01212046FFF78FFC00F00F03FD
:10407800022B02467FF44FAF00212046FFF785FC54
:1040880000283FF448AF87077FF445AF0379322B08
:104098007FF441AF1109C90087683048002241F018
:1040A80002010AF039FA00283FF435AF406802AA45
:1040B800390908F04FFE029B002B3FF42CAFD907BB
:1040C80007D49A077FF427AF1968254A91427FF4ED
:1040D80022AF039A002A7FF41EAF019391E620468F
:1040E800FFF74CFC013D8CE6962E14D1D4E9012350
:1040F80003EBC20313F8153C2D2B7FF40CAF2A46B3
:1041080041462046FFF717FD00283FF404AF6368D7
:10411800023B63600AE6062E18D12A46414620462D
:10412800FFF709FD00287FF401AEF4E62046FFF70B
:1041380025FC013D41F82500002DF7D1962E03D12D
:1041480039462046FFF75BFC394684E6362EE4D034
:10415800332EAFE668040408581E0408E80404086F
:104168006C2204080346006830B508B9106030BDF9
:10417800840702D013600120F9E74468E5B28D4254
:10418800F8D108301060200AF1E700002DE9F04F5F
:1041980093B00024402301904FF400700D46009224
:1041A800CDE90534FCF730F9202307908020CDE9CC
:1041B8000834FCF729F92146CDE90A050FA8CDE90D
:1041C8000D440AF073F9009B002B49D0022B0CBF59
:1041D8003F222246696CDFF8E0A2002305A8FFF71A
:1041E80025FC0027069C002C00F06881013C0799FB
:1041F800AC4E069401EBC40351F83410DA785B68CE
:10420800C1F31709A84911F802B0A849895C632AC3
:1042180088BF41F4807106EB41060BF0300110298C
:104228000BF00F081ED020294BD0002F00F00D8175
:10423800B8F1020F40F0FC80012B18D000211BF0D0
:10424800010F03F1FF3006D074880AEA0404B4F5BC
:10425800805F08BF5808012800D161B10346B3E068
:104268003D22B7E72BB906EB4306984505D8012749
:10427800B8E7002FF7D10027B4E7374636F8021B16
:1042880001EA0A00B0F5805F0DD195F84C00C1F342
:104298000B01884213D105A81146FFF7A3FC284655
:1042A800FEF796FFE7E70133434503D2494605A8E1
:1042B800FFF7BCFB398805A8FFF7D9FBDBE701331B
:1042C800D3E78FB103F10041013936F811100AEA3A
:1042D8000101B1F5405F1ED1002105A8CDE90232E8
:1042E800FFF78DFBDDE9023206EB4304984526D83B
:1042F800009B002B49D1002406EB48082746B0450F
:1043080067D1012F40F088801BF0400F00F08480B7
:10431800002631467AE0012BA9D995F84C30072BB5
:1043280040F0FA80624963480CF0D4FB6A6C296853
:10433800044600230CF098FC2046FCF741F8274679
:1043480034F8021B01EA0A00B0F5805F1BD195F82A
:104358004C00C9B2884212D1092807D1114605A8D4
:1043680003930292FFF73EFCDDE902232846CDE9DC
:104378000232FEF72DFF029B039A0133B6E7002BAA
:104388003FF475AFC9E7013390E7052AB3D100219F
:1043980005A80292FFF7F9FA029A0028ABD1012189
:1043A80005A8FFF7F2FA10F0030F029A00F0C28096
:1043B80000F00F0002289ED005A8FFF7DFFA05A835
:1043C800FFF7DCFA00230822494605A8FFF79CFC02
:1043D80051E738F8023D03EA0A01B1F5805F05D1DB
:1043E800DBB2092B8BD10134013788E7214605A8B8
:1043F8000292FFF7CAFA029A00B1013701347EE748
:10440800FFF7BCFA0136002818BF0146A64205A8E6
:10441800F6D1FFF7F4FA2EE71BF0800F06D0002143
:1044280005A80292FFF7EBFA029A01342346CBE77C
:10443800012B3FF41CAF13F001013FF400AFB8F1BA
:10444800030F7FF46AAF0121F9E608EA030101F0DE
:10445800010136F8114004EA0A00B0F5805F17D16F
:1044680095F84C00C4F30B04A04203F101040DD1EC
:1044780029B9114605A80292FFF7B4FB029A0292E5
:104488002846FEF7A5FE029A2346DEE72346CFE636
:10449800494605A80133FFF7C9FA214605A8FFF7E1
:1044A800E6FA9FE6D4050408240504085C09040814
:1044B80074040408841C040800F0FFFF0FA80AF025
:1044C80009F80E9850B1416822460831FBF7C2FF3F
:1044D8000E9B5A681A600D9A5A600D9395F84C30E5
:1044E800002B7FF41AAF099B002B3FF416AF0A9BF1
:1044F80007981B680C93FBF7AFFF0A98FBF7ACFF14
:104508002846FFF724FADDE90C01019B83E8030044
:10451800184613B0BDE8F08F022B01D1094902E714
:10452800042B02D108490948FEE6052B0CBF0849AF
:104538000849F8E700283FF4DEAE03793A2B3FF448
:104548003BAFD8E686040408AD040408581E0408E6
:10455800C0040408D504040810B5406800B910BDAB
:104568004468FBF779FF2046F8E70000F8B50546F0
:1045780030200E461746FBF760FF072D04460570EE
:10458800C66001D0012D0FD1B368C3F30F13A38206
:1045980008F002F8042320612783E3842020FBF736
:1045A80033FFE0622046F8BD014B5B5DEFE700BFDB
:1045B8000C0A040810B50446C06AFBF74DFF2046F4
:1045C800BDE81040FBF748BF30B5058D0446002212
:1045D800954201D8002030BDE36A03EBC20043686E
:1045E8008B42F8D00132F3E770B504460D46164603
:1045F800FFF7EAFFC0B9E38C228D9A4208D306334D
:10460800D900E06AFBF71BFFE38CE0620633E38422
:10461800238DE26A591C02EBC300218502F833603E
:10462800002343704380456070BD034618465B68AD
:10463800002BFBD1FFF7C8BFF8B544680E462CB96C
:10464800F8BD042BFCD105230370F9E7254628465D
:104658006D68002DF4D077683946FFF7B5FF00285C
:10466800F5D00378043B022BEAD8062333701D46A5
:10467800002239462046FFF7B7FF0378002BE0D128
:1046880005706468F4E7036A1B8B012B1EBFC368BF
:10469800C918C1607047836A10B504469B6F406AA9
:1046A8009847238B226A0133918C9BB299422383CA
:1046B80038BF938410BD038B10B5013B0383836A15
:1046C8000446D3F88030406A984720460121BDE867
:1046D8001040FFF7D8BFF7B51E4659B111F00305D2
:1046E80011D14F68FCB294420DD13F0A01F1080480
:1046F800BD4201DB03B0F0BD54F8041B0190013545
:10470800B0470198F4E7334603B0BDE8F0401847D6
:104718002DE9F04F2DED028B044608EE102A83B0E8
:104728000D4698461BB1CB8A43F00803CB8218EE9E
:10473800103AEB83236ADA8A42F03002DA821B7875
:10474800002B4CD1A36A606AD3F8B06018EE102A27
:1047580043462946B44603B0BDEC028BBDE8F04F92
:104768006047DB6A03EBC60B13F83630053B012BB9
:104778001DD84FF0000917E0EB6A03EBC90213F8E4
:104788003930062B0ED1DBF804105368994209D151
:10479800A36ABBF802201B69606A1F460023B8475A
:1047A8000AF1010A09F101092B8D4B45E4DC0136B8
:1047B800236A1A8DB242D4DCBAF1000FC2D0A36AC0
:1047C800CDF80080D3F8B460606A18EE103A52460B
:1047D8002946B04703B0BDEC028BBDE8F08F002638
:1047E800B246E5E7F8B504460E4611461A460023D8
:1047F80085780769837003610E4BFFF76CFF636868
:10480800BBB9618A51B1228A42B9A36A606AD3F8F6
:104818009C309847A36A606A1B6C9847238A628A0F
:1048280031462046FFF774FF003D18BF0125A570EB
:104838002761F8BDC5540008024B89689D22FFF71F
:104848004ABF00BF1D710008024B89686B22FFF741
:1048580042BF00BF296E0008836A10B50446D3F82A
:104868008430406A00219847A36A606A1B6B102154
:104878009847A36A606AD3F8C83001219847204650
:104888000321BDE81040FFF7FEBE38B5836A044631
:104898005B6C406A00229847A36A606AD3F8BC50F0
:1048A80000231A461946A8472046BDE83840FFF7B6
:1048B800D3BF836A89681B6D406A002209091847BB
:1048C800836A8968DB6B406A184710B50446084656
:1048D80011461A46FFF74AFE236A436000238360A5
:1048E800E3690BB9E06110BD1A469B68002BFBD148
:1048F8009060F8E770B54378012B05460C4606D161
:10490800036A0A461B8B0221FFF7DFFF2061A268BA
:10491800216928464C23BDE87040FFF763BF70B596
:1049280013464278012A05460C4604D10A46072157
:10493800FFF7CBFFA061A669E26828464623314607
:10494800FFF750FFB08A70BD2DE9F04F85B00546DE
:1049580000AF0C4611B90121116015E011F00308F0
:104968001BD10B79682B07D1CB681B0913608C68A6
:10497800002CF0D04FF0010804F00F03022B0FD1E8
:104988002109B8F1000FE7D0AB6A686ADB6A002238
:1049980098471437BD46BDE8F08F4FF00008EBE7A5
:1049A800B8F1000F02D1A3681B091360666804F10F
:1049B800080A360A06F1FF3BD1460AEB860659F883
:1049C800040B0009FCF788FBB1458344F7D10BF1D0
:1049D800070323F00703ADEB030D6B4699465AF81E
:1049E800040B3B6007F10C010009FCF78CFBFA682B
:1049F8007A600146484623F095F87A683B68B245E4
:104A0800914418D159461846FCF7B2FAAB6A0146E8
:104A1800DB6A686A00229847B8F1000FB9D00C34F5
:104A2800A642B6D054F8041BAB6A686A1B6D002214
:104A380009099847F4E74FF02E0209F8012BCEE751
:104A480031B1026801F00303134304BF0B6803602C
:104A58007047000038B543680D460446114653B9FF
:104A680005480CF037F82946606004F10800BDE8F5
:104A78003840FFF7E5BF38BD581E04082DE9F04F50
:104A88002DED028B0E46016200214270C160337821
:104A9800072B8DB00446154607D0874AFFF7DAFF83
:104AA8000DB0BDEC028BBDE8F08F012A05D0036B79
:104AB800021D1B68C06A294698476378D6F80C908F
:104AC800032B10D10BAA462109F10C00FFF74AFB72
:104AD800236B0B9A9B680146E06A9847636870836A
:104AE800002B40F0AF80D9F81010C1B101F00F06CB
:104AF800022E10D10B09752B3DD006D83E2B3CD089
:104B08005E2B0DD06D4A2046C8E740F28F52934283
:104B1800F8D1032604E06A4A2046FFF79BFF0226E5
:104B2800D9F81430089309AA192108A8FFF71AFB25
:104B38004FF0000A0690069B9A4520D16378012B16
:104B480015D9236BE06A5B68314698476378042B74
:104B58000DD1206A0396438B02930023CDE90033DD
:104B6800E26A0069D2E90232052107F02FFD636885
:104B7800002B67D194E70026D2E70126D0E7099BEE
:104B880053F82A100B79082B4FEA8A0B02D10AF145
:104B9800010AD0E7052B01D04A4AB4E7CB68002BBD
:104BA800FAD18B681A792C2AF6D19F6807F00F0280
:104BB800022AF1D1DB680593002BEDD09A07EBD1DF
:104BC8001B79302BE8D1059B0AAA03F10800A42120
:104BD800FFF7C8FA3F0940F299439F4280461BD12C
:104BE800012805D10A9A136803F00F03022B04D099
:104BF800354A099B53F80B1085E7E168012D01F14F
:104C08000103E36019D01268236BE06ADB681209BC
:104C1800984790B92D4AECE7B7F5767F16D1012869
:104C280003D10A9B1968CB0701D4294AE1E7012D72
:104C380003D0E06A491003F0BEFA6368002BA6D0DF
:104C4800DDF81490D9F80030A36029E740F21A4340
:104C58009F4226D1012804D90A9B1B6813F001073B
:104C680001D11C4AC5E7012DE7D05B1008EE103AC8
:104C78000A9B0BA953F82700FFF71EF808B9164A34
:104C8800B7E7E36A0B9807930DF0BEF9079B024656
:104C980018EE101A1846013703F094FAB845E7D110
:104CA800CBE7012DC9D0236B0246D3F810B0E06AD8
:104CB8000A9B3946D847C0E7130A0408290A04089A
:104CC8002D0A0408350A0408430A04084F0A040890
:104CD800530A04085F0A0408710A0408014AFFF726
:104CE800B9BE00BF7C0A04080B79092B70B50CBF4C
:104CF800858AC58A4FF6FF739D42044602D1064A4B
:104D0800FFF7A8FE218B628BA36A606A5B6F8A1A21
:104D18002946BDE870401847890A040813B50446B7
:104D2800B9B101F00F03022B0FD10A091046019205
:104D380009F03AFA0028019A05DA074907480BF002
:104D480053FF6060002002B010BD054AFFF782FEE5
:104D5800F8E70846F7E700BFA20A04080C1F040892
:104D6800A70A04082DE9F8430646006AC48A14F025
:104D780002050F46904606D0334A39463046BDE80C
:104D8800F843FFF767BE01F00F02022A17D1B37884
:104D980009097BB1828B013282834FF00109002916
:104DA80050D00022FFF720FC03780446002B35D0B2
:104DB800264AE2E7428B013242831D46EDE70A7933
:104DC80042450D460BD18968B37809091BB1838B1D
:104DD80001338383E1E7438B01334383DDE79A4261
:104DE80014D1B578002DC7D10123B370896849B3B0
:104DF80001F00F02022A18BF0D4644F0040418BF40
:104E0800A968C48209094FF00309C8E7896844F012
:104E180002040909C4824FF00509C0E7042303709E
:104E280080F80190336A1B8B032B0BD1B8F1480F24
:104E380008D13DB1E9683046FFF770FF637843EA6F
:104E480000136370BDE8F883D5040408AE0A0408AB
:104E58004F234E22FFF786BF49234822FFF782BF20
:104E680010B404460B466278006A012A03D15DF843
:104E7800044BFFF7B9BBA16A02461031606A5DF8BE
:104E8800044B02F07DBC000070B505460C460029B5
:104E98002ED0CA0706D5836A5B6B4910686ABDE8DD
:104EA800704018478B0717D004F00F04022C4FEA04
:104EB80011110AD0062C0CD0062919D0836A406A31
:104EC8001B6BBDE87040C9B21847BDE87040FFF7DA
:104ED800C7BF836A9B6BE1E7836A0968DB68406A3E
:104EE80098472279034B214653F822302846D6E7C3
:104EF80070BD00BF000C04082DE9F74F04460D46AD
:104F080016461F462846FEF7F9FE20B1CEB9A36A19
:104F180039469B6E4CE02846FEF7F3FE08B186B191
:104F2800F5E7002D55D0AB0753D16B684FEA132B2B
:104F3800DBB21E2B1BD1F6B1083505EB8B0B5D459B
:104F48000DD103B0BDE8F08F5AF8041B0192434617
:104F58002046FFF7D1FF09F10109019A19E055F838
:104F6800041B3B4632462046FFF7C6FFE7E71F2BE8
:104F780023D1002EE0D0D4F80C8008F10103E360BF
:104F88000BF1FF3305F1080A4FF00009009386F092
:104F98000102009B4B45D7DC0BF101013B4655F85C
:104FA800211032462046FFF7A7FFA36A9B6A4146B5
:104FB800606A03B0BDE8F04F1847202B03D1AD68F5
:104FC80086F001069EE72D2B03D1AB68002BA6D1F6
:104FD8009CE729462046FFF757FFA36A606ADB6E05
:104FE8003A46314603B0BDE8F04F184738B5026A73
:104FF8001278072A04460B4606D0022A04D0BDE8D8
:105008003840144AFFF726BD9D6885B9A36A606ACF
:105018001B6B10219847A36A606AD3F8C830002137
:10502800984720460121BDE83840FFF72CBBAB0765
:105038000BD12B79AF2B08D12046A968FFF724FFA5
:105048002046BDE83840FFF707BC29462046FFF751
:105058001BFFE0E7B80A040870B54378CE68012B57
:105068000446154606D1036A0A461B8B2946FFF7F4
:105078002CFC7061002371691A462046FFF748FB33
:10508800F1682046FFF700FF062D05D1A36A606A84
:10509800D3F8843000219847A36A606AD3F8B850DF
:1050A8000023AC461A46BDE870400121604738B578
:1050B8000C460546C968FFF7E7FEA1682846BDE823
:1050C8003840FFF7E1BE0B79342B70B504460D4626
:1050D80010D18968FFF7D8FEED68AD6885B9A36A75
:1050E800606A1B6B10219847A36A0422D3F89C308E
:1050F80002211AE0836A406A1B6B10219847ECE78B
:10510800AB071FD12B799A2B13D1A36A606A1B6B4B
:1051180010219847A9680029E6D02046FFF7B4FE79
:10512800A36AD3F89C3004220321606ABDE870406A
:1051380018479B2B06D1A9682046FFF7A5FEEB6808
:105148009968E8E729462046FFF79EFECCE710B5A8
:1051580004468968FFF798FEA36A606ADB6CBDE8BD
:1051680010400021184700002DE9F7438D680446D8
:10517800164645B9FAB1836AD3F89C30022229460B
:10518800606A984717E015F0030740F084802B7990
:10519800372B13D132B1836A406AD3F89C3002228C
:1051A8000121984720462946FFF76EFEA36A606AE8
:1051B800D3F8A030984703B0BDE8F0839F2B6AD19D
:1051C800EB681A79A12A56D1A22101AA03F1080095
:1051D800FEF7C8FFA968804611B38B0720D10B7969
:1051E800372B1DD136B1A36A411CD3F89C30606AB5
:1051F80002229847A9682046FFF746FEA36A606A1C
:10520800D3F8A03098474FF0010947450ED1B9F1BE
:10521800000FD0D1A36A0322D3F89C30791CAFE7E2
:105228002046FFF731FE4FF00009EEE7019B53F8E7
:10523800271099B18E0711D10E79A6F13700464291
:1052480046412046FFF720FEB9F1000F0FD03EB9C6
:10525800164A29462046FFF7FDFBACE70026F0E793
:10526800A36A606AD3F8A03098470137CDE7002ECB
:10527800FBD00F4AEDE7AB684BB19A0707D11B7912
:10528800372B04D104222946FFF7E6FE93E70522CF
:1052980029462046F8E729462046FFF7F5FDA36A88
:1052A8000322D3F89C3001216AE700BFC30A04082F
:1052B800D40A04080122FFF757BF70B50D46C96824
:1052C8000446FFF7E1FDA968A36A606AD3F8943041
:1052D800C1F30711342918BF4039BDE8704014BF25
:1052E800C9B202211847F8B54F680C4689680546C7
:1052F800FFF7CAFD3F0A0C3400260236B74204F114
:10530800080400DCF8BD54F8041C2846FFF7BCFD6F
:1053180054F8081CAB6A686AD3F89830090925392B
:10532800C9B29847E9E72DE9F0414E680C4689680B
:105338000546FFF7A9FDA6F10D085FFA88F8360AB9
:105348000C340127B74201DBBDE8F08154F8041B97
:105358002846FFF799FDAB6A686AD3F8983041464A
:1053680098470137EEE72DE9F0414E6804460D46AF
:10537800360A8968FFF788FD032E83BFD4F80C80AE
:1053880008F10103E3604FF0000801277B1C9E42EF
:1053980022DC032E55DDE568606A6B1CE360A36AB6
:1053A80029469B6E9847A36A606A9B6A414698475C
:1053B800A36A606A9B6801219847A36A606A1B6EAA
:1053C8009847A36A606ADB6D9847A36A606A9B6A1C
:1053D8002946BDE8F0411847296920460237FFF7FA
:1053E80053FDB74207DAA36A606A5B6D9847A36A00
:1053F800606A5B6E9847EB68A26A606AD2F8982088
:1054080003F00F010A2911D1C3F30713262B1ABF82
:10541800353BD9B206219047B74205DAA36A606ADC
:105428001B6F4246002198470835AFE7197985294F
:1054380001D13221EFE79B680BB90721EBE7332154
:10544800E9E7BDE8F08110B504468968FFF71CFD5F
:10545800A36A606AD3F89430BDE810400321184766
:105468002DE9F0474E68D0F80C805FFA86F9A9F16B
:105478001E03D3F1000949EB030908F101030446AF
:10548800C360360A01F108050027B74206DBA36AA4
:10549800606A9B6A4146BDE8F047184755F8041B07
:1054A80020460137FFF7F0FCB742F0DAA36A606ADA
:1054B8001B6F424649469847E7E7000001F00F0393
:1054C800022B70B504460FD00B79492B01D04F2B16
:1054D80002D10123A37070BD4A2BFCD0502BFAD007
:1054E800482B0DD10D696DB9A378002BF3D1638AD0
:1054F800002BF0D020461D4ABDE87040FFF7AABA3D
:10550800CD68F0E7A37843B3238A8E6801339BB252
:10551800012B23820ED1618AD4E90903D1B1D3F8D2
:105528009C3000229847A36A606AD3F89C30022214
:105538000021984729462046FFF7A6FCA36A606A1F
:105548009B6B31099847A36A606AD3F8A030BDE81D
:10555800704018471B6C9847E5E7638A01336382FC
:1055680029462046BDE87040FFF78EBCDF0A0408D4
:105578002DE9F041C568D1F80C80AB1CC3600E461C
:10558800044600222B46D8F80810FFF7B5FCB1688E
:105598002046FFF779FCA36A606A9B6E6F1C394648
:1055A8009847A36A606A9B6A29469847A36A606A13
:1055B8009B684FF0FF319847D8F80C102046FFF74A
:1055C80063FCA36A606A9B6A3946BDE8F0411847E4
:1055D8002DE9F047C668D0F814A0B0F81A90868272
:1055E800B31CC36006F10108038BA0F816800446BB
:1055F800438388680D46FEF781FBF8B9E7687B1C92
:10560800E360A868FEF77DFB20B9A36A606A9B6E19
:1056180041469847A36A606A9B6A39469847E96891
:105628002046FFF731FCA36A606A9B6A41469847A7
:10563800A9683B4601222046FFF75EFC2969C4F8A9
:1056480014A02046A4F81A90FFF71EFCA36A606A0B
:105658009B6A3146BDE8F04718472DE9F347C6680D
:10566800731CC360044688680D46FEF747FB024674
:10567800E8B9E7687B1CE360A9683B462046FFF76A
:105688003BFC2046E968FFF7FFFBA868FEF739FBFB
:10569800D8B92B690BB96B6923B1A36A606A9B6E91
:1056A80031469847A36A606A9B6A3946984701AAB7
:1056B800712105F11000FEF755FD002781464F4581
:1056C8000BD169692046FFF7DFFBA36A606A9B6A12
:1056D8003146984702B0BDE8F087019B53F8278010
:1056E800D8F80800FEF70AFB0246F8B9D4F80CA06F
:1056F8000AF10103E360D8F8081053462046FFF783
:10570800FBFB2046D8F80C10FFF7BEFBD8F80800C2
:10571800FEF7F7FA0028D8D1A36A606A9B6E314673
:105728009847A36A606A9B6A514698470137C6E75B
:1057380070B58D6804463DB9836AD3F8C4302946EC
:10574800606ABDE870401847AB070ED12B795E2B15
:105758000BD1A968FFF798FBE9682046FFF794FB8F
:10576800A36A0221D3F8C430EAE729462046FFF7A6
:105778008BFBA36A0121D3F8C430E1E710B50446D6
:105788008968FFF781FBA36A606ADB6DBDE810409A
:1057980018472DE9F0414E6801F10804360A05461C
:1057A80004EB8607BC4208D1AB6A686AD3F89C3020
:1057B80031460022BDE8F041184754F8041B28463A
:1057C800FFF762FBEEE74B682DE9F04105460E4610
:1057D8001F0A01F108080024BC4201DBBDE8F08182
:1057E80058F8041B2846FFF74FFB6B6843B1023497
:1057F80005F1080056F82410BDE8F041FFF720B97C
:105808000134E9E710B50446FFF7DDFFA36A606AD3
:10581800D3F89830BDE810402221184770B58D683C
:10582800044645B9836AD3F89C3001222946606A48
:10583800BDE870401847A9071ED16B68DAB2922AF2
:105848001AD11B0A022B0CD1EB6853B19A0708D165
:105858001B79AC2B05D129460322BDE87040FFF720
:10586800FBBB29462046FFF7AEFF6968A36A012201
:10587800D3F89C30090ADAE729462046FFF704FBEB
:10588800A36A0122D3F89C301146D0E7184B2DE9C2
:10589800F041D3F8FC7104460D463FBBC668731C43
:1058A800C360896833460122FFF726FBA36A606A52
:1058B8005B691F2101229847E96851B12046FFF72B
:1058C800E3FAA36A606AD3F8B8503A463B46012126
:1058D800A847A36A606AD3F8C43001219847A36A2D
:1058E800606A9B6A3146BDE8F0411847BDE8F0811F
:1058F800DC1B00202DE9F041026A1278072A0446D1
:1059080004D0BDE8F0411A4AFFF7A4B88D685DB924
:10591800836A406A1B6B10219847A36A606AD3F8B0
:10592800C030BDE8F041184715F003021DD12B79AE
:105938001B2B1AD1C668EF68731CC360B96833465D
:10594800FFF7DAFAA9682046FFF79EFAA36A606AA9
:10595800D3F8C0309847A36A606A9B6A3146984773
:10596800F9682046FFF790FAD7E72946F9E700BF1C
:10597800FD0A0408896810B4034641B9826A406A7E
:10598800D2F89C400A4623465DF8044B18474A68FB
:10599800120A022A0BD1CA684AB1940707D11279B0
:1059A800AC2A04D15DF8044B0622FFF755BB5DF81D
:1059B800044B1846FFF7EDBE10B4026A044640785F
:1059C80001280B4604D15DF8044B104601F0C9BE0E
:1059D800A16A606A5DF8044B183101F0D1BE00007D
:1059E8008B072DE9F14F04460D46164611D001F0FC
:1059F8000F03022B16D1D7074FEA111104D401B0B7
:105A0800BDE8F04FFFF7D8BF01B0BDE8F04FFFF792
:105A180027BA4968CBB22D2B7BD00BD8062B0DD0DB
:105A28002C2B12D04E4A2946204601B0BDE8F04F33
:105A3800FFF710B82E2B7FD09D2BF3D1002EF1D17C
:105A480005F10802090A20467BE0022A02D0A9686B
:105A5800FFF71AFAEF68002FE4D017F00309E1D135
:105A68007B68DAB28E2AB8460DD1022E4FEA132887
:105A780005D007F1080A08F1FF3BD94511DB08F109
:105A8800010857F8288098F80430312B24D1022EC9
:105A98000FD1A36A606A5B6E9847A36ADB6C012129
:105AA80015E05AF8041B2046FFF7EEF909F1010941
:105AB800E3E7D8F808102046FFF7E6F9012EA36AB5
:105AC800ECD19B6D606A9847A36ADB6C0021606A21
